:020000040800F2
:10000000984B00206D020008AB2A0008AD2A0008BA
:10001000B12A0008B52A0008B92A0008000000002B
:10002000000000000000000000000000CD010008FA
:10003000BD2A0008000000000D020008C9280008C1
:10004000870200088702000887020008870200086C
:10005000870200088702000887020008870200085C
:10006000870200088702000887020008BF2A0008EC
:10007000C12A000887020008C32A0008C52A000810
:10008000C72A0008C92A000887020008870200085A
:10009000870200088702000887020008CB2A0008B0
:1000A00087020008CF2A000887020008870200089C
:1000B000870200088702000887020008D12A00088A
:1000C000D32A0008D52A0008D72A0008870200088A
:1000D000870200088702000887020008CD2A00086E
:1000E00087020008870200088702000887020008CC
:1000F00087020008870200088702000887020008BC
:1001000087020008870200088702000887020008AB
:10011000870200088702000887020008870200089B
:10012000870200088702000887020008870200088B
:1001300000F002F800F03AF80AA090E8000C8244BF
:100140008344AAF10107DA4501D100F02FF8AFF29C
:10015000090EBAE80F0013F0010F18BFFB1A43F0A5
:1001600001031847602A0000802A0000103A24BFCB
:1001700078C878C1FAD8520724BF30C830C144BF0C
:1001800004680C607047000000230024002500264E
:10019000103A28BF78C1FBD8520728BF30C148BFEA
:1001A0000B6070471FB51FBD10B510BD02F0D3FC2A
:1001B0001146FFF7F7FF02F06AFC02F0F1FC03B40E
:1001C000FFF7F2FF03BC02F0F5FC00001F4B1968BB
:1001D0000868B0E8F00F80F30988BFF36F8F4FF025
:1001E000000080F311884EF00D0E704700000000F3
:1001F00005480068006880F3088862B6BFF34F8F37
:10020000BFF36F8F00DF00BF08ED00E0EFF3098060
:10021000BFF36F8F0D4B1A6820E9F00F106008B51F
:100220004FF0BF0080F3118802F04AF84FF0000051
:1002300080F31188BDE8084019680868B0E8F00F3D
:1002400080F30988BFF36F8F704700BF1400002050
:10025000EFF311804FF0BF0181F31188704780F3F5
:1002600011887047EFF30580704700000948804708
:1002700009480047FEE7FEE7FEE7FEE7FEE7FEE788
:10028000FEE7FEE7FEE7FEE704480549054A064BA0
:10029000704700007B0300083101000898450020EA
:1002A000984B00209847002098470020002100200C
:1002B000434A126842F48032414B1A6000BF404A00
:1002C000126802F40030491C10B9B1F5A06FF6D1E4
:1002D0003B4A126812F4003F01D0012000E00020E8
:1002E000012843D1374A126842F01002354B1A6098
:1002F0001A46126822F003021A601A46126842F087
:1003000002021A602E4A52682D4B5A601A465268F1
:100310005A601A46526842F480625A601A4652681D
:1003200022F47C125A601A46526842F4E8125A606B
:100330001A46126842F080721A6000BF204A1268A2
:1003400012F0007FFAD01E4A526822F003021C4BC2
:100350005A601A46526842F002025A6000BF184AB8
:10036000526802F00C02082AF9D101E000BFFEE752
:10037000704710B5FFF79AFF10BD10B51048006820
:1003800040F001000E490860084640680E490840E8
:100390000B494860084600680C4908400849086055
:1003A0000846006820F4802008600846406820F471
:1003B000FE0048604FF41F008860FFF7DAFF10BDB1
:1003C00000100240002002400000FFF8FFFFF6FE90
:1003D00031490143314A1160704770B50021002353
:1003E0000F22C4780CB32D4C246804F4E064C4F5E7
:1003F000E064210AC1F10403CA40447804FA03F11D
:100400008478144021430901254C0678A1550478CD
:1004100004F01F050124AC4005786D114FF0E02673
:1004200006EB8505C5F8004109E0047804F01F05D6
:100430000124AC401B4D0678761145F8264070BD6E
:10044000194A0A400243154B1B1F1A60704739B105
:10045000124A121D12680243104B1B1D1A6006E05F
:100460000E4A121D126882430C4B1B1D1A60704706
:10047000042808D14FF0E021096941F004014FF050
:10048000E022116107E04FF0E021096921F0040149
:100490004FF0E022116170470000FA050CED00E01A
:1004A00000E400E080E100E080FFFF1F0A480068F0
:1004B000000C704708480068C0F30B00704729B172
:1004C000054A52680243044B5A6004E0024A5268EB
:1004D0008243014B5A607047002004E0014600202F
:1004E000FE4A106800F03800084310607047FB496E
:1004F000096821F00801F94A1160114609680143B1
:1005000011607047F549096821F01001F34A116044
:1005100011460968014311607047F148EF4948608E
:10052000F04848607047EE48EC494860ED48486044
:100530007047EA48006940F08000E8490861704768
:10054000E648006940F08000E449086170470420F3
:10055000E249C96811F0010F01D001200EE0DF4926
:10056000C96811F0040F01D0022007E0DB49C96817
:1005700011F0100F01D0032000E00420704700B5F7
:1005800002460423FFF7E3FF034603E0FFF7DFFF24
:100590000346521E012B01D1002AF7D102B90523CF
:1005A000184600BD30B5044604254FF43020FFF74F
:1005B000E6FF0546042D17D1C848006940F0020047
:1005C000C649086108464461006940F0400008617E
:1005D0004FF43020FFF7D3FF0546C048006941F6CD
:1005E000FD710840BD490861284630BD10B504249E
:1005F0004FF43020FFF7C3FF0446042C16D1B74850
:10060000006940F00400B54908610846006940F0FF
:10061000400008614FF43020FFF7B1FF0446AF48B7
:10062000006941F6FB710840AC490861204610BDE5
:1006300000B502460423FFF78AFF034603E0FFF7F5
:1006400086FF0346521E012B01D1002AF7D102B9C1
:100650000523184600BD10B504244FF43020FFF7E1
:10066000E7FF0446042C16D19C48006940F00400C2
:100670009A4908610846006940F0400008614FF45B
:100680003020FFF7D5FF04469448006941F6FB711E
:10069000084092490861204610BD00208F49C96971
:1006A00011F0020F01D0012000E00020704730B5AA
:1006B000A5250424FFF7F1FF00B100254FF43020F9
:1006C000FFF75DFF0446042C3AD1854883498860D2
:1006D000844888600846006940F0200008610846A8
:1006E000006940F0400008614FF43020FFF747FFF9
:1006F0000446042C1BD17948006941F6DF7108409B
:10070000764908610846006940F0100008617648A3
:100710000580E002FFF733FF0446052C10D06F4838
:10072000006941F6EF7108406C49086108E0052C4A
:1007300006D06A48006941F6EF71084067490861D0
:10074000204630BDF0B504460D4604260027F002D1
:10075000FFF715FF0646042E22D16048006940F0DD
:1007600001005E4908612580F002FFF708FF064698
:10077000042E0ED1A71C280C3880F002FFF7FFFED4
:1007800006465648006941F6FE7108405349086123
:1007900006E05248006941F6FE7108404F49086181
:1007A0003046F0BD70B504460D460426F002FFF752
:1007B000E6FE0646042E11D14848006940F00100CB
:1007C000464908612580F002FFF7D9FE06464348F6
:1007D000006941F6FE71084040490861304670BD2D
:1007E00070B505460E460424E002FFF7C8FE044635
:1007F000042C17D13A48394988603A48886008463D
:10080000006940F0100008612E80E002FFF7B7FE9B
:100810000446052C06D03148006941F6EF710840C6
:100820002E490861204670BD2DE9F04304464FF67D
:10083000FF763746B046B1460425E443E6B2C4F33A
:100840000727C4F307484FEA1469E802FFF797FE49
:100850000546042D40D122482049886021488860FF
:100860000846006940F010000861FF2E06D01E48BF
:1008700008300680E802FFF782FE0546042D08D105
:10088000FF2F06D018480A300780E802FFF777FEEE
:100890000546042D0AD1B8F1FF0F07D012480C30DD
:1008A000A0F80080E802FFF76AFE0546042D0AD191
:1008B000B9F1FF0F07D00C480E30A0F80090E80205
:1008C000FFF75DFE0546052D06D00448006941F698
:1008D000EF71084001490861284607E00020024006
:1008E00023016745AB89EFCD00F8FF1FBDE8F0831A
:1008F00030B5054604244FF43020FFF740FE04468F
:10090000042C41D15E485F4988605F488860084692
:10091000006940F0200008610846006940F040008E
:1009200008614FF43020FFF72AFE0446042C22D140
:100930005448006941F6DF71084052490861084691
:10094000006940F0100008611DB100204F49088087
:1009500002E0A5204D4908804FF43020FFF70FFE3C
:100960000446052C10D04748006941F6EF71084055
:100970004449086108E0052C06D04248006941F668
:10098000DF7108403F490861204630BDF0B505469B
:100990000E46174604243A483A4988603A48886027
:1009A000E002FFF7ECFD0446042C19D1354800693C
:1009B00040F010003349086147F0F8003043284305
:1009C0003249891C0880E002FFF7D9FD0446052C56
:1009D00006D02C48006941F6EF71084029490861AA
:1009E0002046F0BD2748C069800870472548006A46
:1009F000704700202349096811F0200F01D0012021
:100A000000E00020704729B11E4A126902431D4BC5
:100A10001A6104E01B4A126982431A4B1A6170473B
:100A200001460020012908D1164AD26912F0010FAF
:100A300001D0012008E0002006E0124AD2680A42F4
:100A400001D0012000E0002070470E49C8607047C7
:100A500004200C49C96811F0010F01D001200EE0FB
:100A60000849C96811F0040F01D0022007E00549C8
:100A7000C96811F0100F01D0032000E00420704776
:100A80002301674500200240AB89EFCD00F8FF1F2E
:100A9000DB48006840F00100D9490860084640681A
:100AA000D8490840D649486008460068D6490840F9
:100AB000D34908600846006820F480200860084692
:100AC000406820F4FE0048604FF41F0088607047C3
:100AD000CB49096821F48031C94A1160114609687F
:100AE00021F480211160B0F5803F03D0B0F5802F54
:100AF0000ED106E0C249096841F48031C04A116054
:100B000007E0BF49096841F4A021BD4A116000E037
:100B100000BF00BF704710B501460022002300202F
:100B20004A11012A02D1B64C236806E0022A02D1FA
:100B3000B34C236A01E0B24C636A01F01F02012446
:100B400094401C4201D0012000E0002010BD70B58F
:100B500000240025002600BF3120FFF7DCFF0646F9
:100B6000641CB4F5A06F01D0002EF5D03120FFF742
:100B7000D2FF08B1012500E00025284670BD0146DE
:100B800000209F4A106820F0F80040EAC100106081
:100B900070479E490860704702460020984B58688D
:100BA00020F47C1042EA01031843954B58607047CB
:100BB00096490866704701460020914A506820F027
:100BC00003000843506070478D48406800F00C00F7
:100BD0007047014600208A4A506820F0F000084320
:100BE0005060704701460020854A506820F4E0605C
:100BF00008435060704701460020814A506820F445
:100C0000605040EAC1005060704729B17C4A527A76
:100C100002437B4B5A7204E0794A527A8243784B02
:100C20005A7270477A490860704701460020744A3A
:100C3000506820F440400843506070470021754AD6
:100C400011706F4A82F82010012802D0042808D1C0
:100C500003E001216F4A117004E005216D4A117013
:100C600000E000BF00BF70476B49086070476449EF
:100C7000096A0143624A1162704767494439086052
:100C8000704730B500210022002400235C4D6D68C0
:100C900005F00C0121B1042905D0082923D105E074
:100CA0005E4D056022E05D4D05601FE0544D6D68AE
:100CB00005F47012524D6D6805F48034022505EB81
:100CC00092421CB9564D554305600BE04C4D6D6882
:100CD00015F4003F03D0524D5543056002E04F4DDF
:100CE0005543056002E04D4D056000BF00BF444D17
:100CF0006D6805F0F00109094A4D6B5C0568DD403F
:100D000045603F4D6D6805F4E061090A454D6B5C37
:100D10004568DD4085603A4D6D6805F46051C90A4B
:100D2000404D6B5C4568DD40C560354D6D6805F430
:100D30004041890B3C4D6B5CC568B5FBF3F5056123
:100D400030BD29B12E4A526902432D4B5A6104E04D
:100D50002B4A526982432A4B5A61704729B1284A6B
:100D600092690243264B9A6104E0254A92698243C4
:100D7000234B9A61704729B1214AD2690243204B23
:100D8000DA6104E01E4AD26982431D4BDA61704782
:100D900029B11B4AD2680243194BDA6004E0184AB1
:100DA000D2688243164BDA60704729B1144A12693F
:100DB0000243134B1A6104E0114A12698243104B3B
:100DC0001A61704714494039086070470F49C86478
:100DD00070470B49C87170470948406A40F08070FD
:100DE00007494862704701460020054A92680A4256
:100DF00001D0012000E0002070470149887270474F
:100E0000001002400000FFF8FFFFF6FE0000424223
:100E1000D8004242201002408004424200127A0070
:100E200000093D00000000201000002010B504461D
:100E3000FE48844208D10121C014FFF7A9FF002118
:100E4000E014FFF7A5FFC4E0B4F1804F08D1012101
:100E50000846FFF7AAFF00210120FFF7A6FFB8E030
:100E6000F348844208D101210220FFF79EFF0021B0
:100E70000220FFF79AFFACE0EE48844208D101213E
:100E80000420FFF792FF00210420FFF78EFFA0E06F
:100E9000E948844208D101210820FFF786FF00219C
:100EA0000820FFF782FF94E0E448844208D1012142
:100EB0001020FFF77AFF00211020FFF776FF88E06F
:100EC000DF48844208D101212020FFF76EFF002176
:100ED0002020FFF76AFF7CE0DA48844208D1012134
:100EE0004014FFF755FF00216014FFF751FF70E039
:100EF000D548844209D10121C804FFF749FF0021E8
:100F00004FF40020FFF744FF63E0D048844209D14A
:100F100001210805FFF73CFF00214FF48010FFF787
:100F200037FF56E0CA48844209D101214805FFF73E
:100F30002FFF00214FF40010FFF72AFF49E0C548BA
:100F4000844208D101214020FFF72FFF00214020DB
:100F5000FFF72BFF3DE0C048844208D101218020EB
:100F6000FFF723FF00218020FFF71FFF31E0BB4880
:100F7000844208D101218015FFF717FF0021A01539
:100F8000FFF713FF25E0B648844209D10121080488
:100F9000FFF7FEFE00214FF48030FFF7F9FE18E066
:100FA000B048844209D101214804FFF7F1FE002135
:100FB0004FF40030FFF7ECFE0BE0AB48844208D161
:100FC00001218804FFF7E4FE00214FF48020FFF7A1
:100FD000DFFE10BD00220288944B98420ED0994B40
:100FE00098420BD0B0F1804F08D0914B984205D079
:100FF000904B984202D0904B984204D14FF68F7399
:101000001A404B881A438D4B984207D08C4B98421C
:1010100004D04FF6FF431A40CB881A4302808B88D6
:1010200083850B880385814B98420BD0854B984272
:1010300008D08B4B984205D08A4B984202D08A4BFD
:10104000984201D10B7A038601238382704770B5E1
:10105000002400220023058C4FF6FE7635400584DF
:10106000028C8388048B4FF68F752C40B51E2C4064
:101070000D882C43751E2A400D892A434D882A432A
:101080006A4DA8420BD06F4DA84208D0744DA842BB
:1010900005D0744DA84202D0734DA84213D14FF62B
:1010A000F7752A404D892A434FF6FB752A408D88F3
:1010B0002A434FF6FF652B404FF6FF552B408D8995
:1010C0002B43CD892B4383800483CD88858602847E
:1010D00070BD70B5002400220023058C4FF6EF761A
:1010E00035400584028C8388048B48F6FF752C40BC
:1010F0004FF6FF452C400D884FF6FF7606EA052592
:101100002C434FF6DF752A400D8906EA05152A4360
:101110004D8806EA05152A43444DA84202D0494DA0
:10112000A8421DD14FF67F752A404D894FF6FF76B4
:1011300006EA05152A434FF6BF752A408D8806EA50
:1011400005152A434FF6FF352B404FF2FF752B4014
:101150008D8906EA85052B43CD8906EA85052B4353
:1011600083800483CD880587028470BD70B5002418
:1011700000220023058C4FF6FF6635400584028C63
:101180008388848B4FF68F752C404FF6FC752C406E
:101190000D882C434FF6FF552A400D894FF6FF76F8
:1011A00006EA05252A434D8806EA05252A431F4DF0
:1011B000A84202D0234DA8421DD14FF2FF752A400C
:1011C0004D894FF6FF7606EA05252A434FF6FF358F
:1011D0002A408D8806EA05252A434EF6FF752B40E6
:1011E0004DF6FF752B408D8906EA05152B43CD89F9
:1011F00006EA05152B4383808483CD888587028486
:1012000070BD70B5002200230024058C4EF6FF76D9
:1012100035400584038C8488828B48F6FF752A400C
:101220004FF6FF452A400D8820E00000002C0140C9
:101230000004004000080040000C00400010004086
:101240000014004000340140004C014000500140B7
:101250000054014000180040001C004000200040E5
:101260000040014000440140004801404FF6FF7635
:1012700006EA05252A434DF6FF752B400D8906EA3F
:1012800005352B434D8806EA05352B43FA4DA84218
:1012900002D0FA4DA84208D14BF6FF752C408D893B
:1012A0004FF6FF7606EA85152C4384808283CD882D
:1012B000A0F84050038470BD828B4FF2FF331A4078
:1012C0008283828B4FF6FF7303EA01231A438283E2
:1012D0007047F0B50C461546002200210026078C09
:1012E0004EF6FF7C07EA0C070784828B018C4FF6D1
:1012F000FF7707EA043640F6FF473A404FF6FF779C
:1013000007EA05273A434FF6FF7707EA03373A43E0
:10131000D94FB8420ED0D94FB8420BD0B0F1804F60
:1013200008D0D74FB84205D0D64FB84202D0D64FDA
:10133000B84206D14DF6FF77394046F4805739431D
:1013400005E047F6FF57394044F48057394382831C
:101350000184F0BD828B4FF6F3731A408283828B37
:101360000A4382837047F0B50C46154600220021DF
:101370000026078C4FF6FF6C07EA0C070784828B68
:10138000018C4FF6FF7707EA04264FF60C773A40B8
:101390004FF6FF7707EA03172F433A43B64FB84299
:1013A0000ED0B64FB8420BD0B0F1804F08D0B44F3A
:1013B000B84205D0B34FB84202D0B34FB84206D1BD
:1013C0004FF6FF57394046F48077394305E04FF236
:1013D000FF57394044F48077394382830184F0BD5C
:1013E000028B4FF2FF331A400283028B4FF6FF73DA
:1013F00003EA01231A4302837047F0B50C461546F1
:10140000002200210026078C4FF6EF7C07EA0C072C
:101410000784028B018C4FF6FF7707EA041640F62B
:10142000FF473A404FF6FF7707EA03373A434FF654
:10143000FF7707EA05273A438F4FB8420ED08F4F08
:10144000B8420BD0B0F1804F08D08D4FB84205D0D4
:101450008C4FB84202D08C4FB84206D14FF6DF779E
:10146000394046F01007394305E04FF65F773940C1
:1014700044F01007394302830184F0BD028B4FF61C
:10148000F3731A400283028B0A4302837047F0B55C
:101490000C46154600220021068C4FF6FE773E4092
:1014A0000684028B018C4FF60C7632407E1C06EAD5
:1014B00003162E433243704EB0420ED06F4EB042F0
:1014C0000BD0B0F1804F08D06D4EB04205D06D4EBC
:1014D000B04202D06C4EB04206D14FF6FD7631409C
:1014E00044F00106314305E04FF6F576314044F013
:1014F0000106314302830184F0BD70B505460C46F8
:101500005D4885420ED05D4885420BD0B5F1804FD5
:1015100008D05B48854205D05A48854202D05A48D7
:10152000854200D100E000BF208850B92389A288FD
:1015300061882846FFF7ABFFE1882846FFF79EFF4A
:1015400025E0208804280AD12389A28861882846BA
:10155000FFF753FFE1882846FFF742FF17E0208896
:1015600008280AD12389A28861882846FFF7FBFE54
:10157000E1882846FFF7EEFE09E02389A28861880A
:101580002846FFF7A6FEE1882846FFF795FE70BDC6
:101590002DE9F04105460C4600260127608808B970
:1015A000022600E00026A088012801D1022700E0E1
:1015B00001272088A0B92389A28861882846FFF7DF
:1015C00066FFE1882846FFF759FF23893A463146EE
:1015D0002846FFF712FFE1882846FFF701FF13E0D6
:1015E0002389A28861882846FFF707FFE1882846FB
:1015F000FFF7F6FE23893A4631462846FFF747FFB4
:10160000E1882846FFF73AFFBDE8F0810A884B8859
:101610001A438B881A43CB881A430B891A434B8988
:101620001A438B891A43A0F8442070474FF6FF7184
:10163000818000210180C1804180017270470021BA
:10164000018041808180C180018141818181C1818E
:101650007047002101804180012181800021C180EB
:10166000018170470021018041808180C18001811A
:101670004181818170470000002C0140003401400D
:101680000004004000080040000C004021B1028826
:1016900042F00102028004E002884FF6FE731A4015
:1016A0000280704731B1B0F8442042F40042A0F803
:1016B000442005E0B0F84420C2F30E02A0F8442014
:1016C00070471AB183890B43838102E083898B437E
:1016D000838170478182704741EA0203A0F8483055
:1016E00070471AB183890B43838102E083898B435E
:1016F0008381704701894FF6F8721140018170476C
:101700000A46002101894FF68F7319401143018168
:10171000704730B504460D4629462046FFF7F0FFD6
:10172000208940F00700208130BD2DE9F0410446BA
:101730000D4616461F46602D06D13B460122314616
:101740002046FFF75AFE05E03B460122314620467F
:10175000FFF79DFE29462046FFF7D2FF208940F083
:1017600007002081BDE8F08130B50C4600210189D9
:10177000C9B24FF6FF7505EA0325154325432943F2
:10178000018130BD2DE9F04105460E4617469846C9
:10179000002443463A4631462846FFF7E5FF2C89A8
:1017A0004FF6F870044044F007044FF68F70044081
:1017B00044F070042C81BDE8F081F0B504460D467C
:1017C00016461F463B46324629462046FFF7CCFFC9
:1017D000208940F480402081F0BD018582827047DD
:1017E0000A46002101884FF68F731940114301808A
:1017F0007047F0B50C4615461E4600210022002316
:101800000189028B038C4FF6F877394021434FF65C
:10181000FC473A4040F201173A434FF6DD773B4030
:101820004FF6FF7707EA06172F433B4301810283F8
:101830000384F0BD0A460021018B4FF68F731940D7
:101840001143018370470A460021018B48F6FF735C
:1018500019404FF6FF7303EA0223194301837047CF
:101860000A460021818B4FF68F7319401143818303
:1018700070470A460021818B48F6FF7319404FF6E6
:10188000FF7303EA022319438183704721B1028861
:1018900042F08002028004E002884FF67F731A4013
:1018A0000280704721B1828842F00402828004E005
:1018B00082884FF6FB731A408280704721B182887C
:1018C00042F00802828004E082884FF6F7731A40E3
:1018D0008280704721B1828842F00102828004E058
:1018E00082884FF6FE731A40828070470A460021B4
:1018F000018B4FF6F77319401143018370470A4675
:101900000021018B4FF2FF7319404FF6FF7303EA7A
:1019100002231943018370470A460021818B4FF649
:10192000F77319401143818370470A460021818B68
:101930004FF2FF7319404FF6FF7303EA0223194376
:10194000818370470A460021018B4FF6FB731940D3
:101950001143018370470A460021018B4FF6FF3384
:1019600019404FF6FF7303EA0223194301837047BE
:101970000A460021818B4FF6FB7319401143818386
:1019800070470A460021818B4FF6FF3319404FF60E
:10199000FF7303EA02231943818370470A4600213B
:1019A000018B4FF67F7319401143018370470A463C
:1019B0000021018BC1F30E014FF6FF7303EA0223EE
:1019C0001943018370470A460021818B4FF67F73CC
:1019D00019401143818370470A460021818BC1F36E
:1019E0000E014FF6FF7303EA022319438183704708
:1019F0000A460021018C4FF6FD7319401143018402
:101A000070470A460021018C4FF6F77319401143C5
:101A1000018470470A460021018C4FF6DF7319409C
:101A20004FF6FF7303EA02131943018470470A4615
:101A30000021018C4FF67F7319404FF6FF7303EAC4
:101A400002131943018470470A460021018C4FF6A6
:101A5000FF5319404FF6FF7303EA02231943018431
:101A600070470A460021018C4FF2FF7319404FF670
:101A7000FF7303EA02231943018470470A460021D9
:101A8000018C4DF6FF7319404FF6FF7303EA0233E2
:101A900019430184704730B5002301248C40A3B260
:101AA000048C9C430484048C02FA01F5ADB22C43EF
:101AB000048430BD30B5002304248C40A3B2048CD0
:101AC0009C430484048C02FA01F5ADB22C430484D7
:101AD00030BD70B50346002000241846183001259B
:101AE0008D40ACB21D8CA5431D8409B1082909D1D4
:101AF00000EB6100056825F0700505600568154379
:101B000005600EE00D1FC5F34E052844056825F459
:101B1000E045056005684FF6FF7606EA0226354384
:101B2000056070BD21B1028842F00202028004E02B
:101B300002884FF6FD731A400280704721B1028877
:101B400042F00402028004E002884FF6FB731A4060
:101B50000280704721B1828842F08002828004E0D6
:101B600082884FF67F731A408280704702884FF652
:101B7000F7731A40028002880A4302807047828805
:101B80004FF68F731A40828082880A4382807047A2
:101B900002894FF6F8731A40028102890A430281D2
:101BA000704702894FF67F731A40028102890A4307
:101BB00002817047818470478185704781867047B4
:101BC0000187704781877047A0F8401070470288EE
:101BD0004FF6FF431A40028002880A430280704792
:101BE0000146888E70470146088F70470146888FEE
:101BF00070470146B1F8400070470146888C704735
:101C00000146088D704702460020138A0B4201D01E
:101C1000012000E000207047CA430282704730B5BF
:101C20000246002000230024158A05EA0103958955
:101C300005EA010413B10CB1012000E0002030BD21
:101C4000CA430282704700F1080141604FF0FF3142
:101C5000816000F10801C1600161002101607047ED
:101C600000210161704742684A6093688B60936805
:101C700059609160086103685B1C0360704710B590
:101C800002460B685C1C01D1106907E002F10800F4
:101C900000E04068446824689C42FAD944684C607B
:101CA0004C68A160886041600A611468641C14601B
:101CB00010BD01460A69D1E901309860D1E90103FC
:101CC00058605068884201D18868506000200861DF
:101CD0001068401E106010687047000010B50024A6
:101CE00007E004EB8401FD4A02EB8100FFF7ABFF44
:101CF000641C052CF5D3FA48FFF7A5FFF948FFF758
:101D0000A2FFF948FFF79FFFF848FFF79CFFF8484C
:101D1000FFF799FFF248F7490860F248F649086072
:101D200010BD2DE9F04704460F4616469946DDF8EA
:101D30002080002507E0795D04F134004155785D8D
:101D400000B902E06D1C102DF5D300BF0021432027
:101D50000155052E00D30426E662201DFFF780FF03
:101D600004F11800FFF77CFF2461C6F10500A061B3
:101D7000646200206064BDE8F08770B505460E46D9
:101D8000482000F0CEFD044664B11EB9A80000F062
:101D9000C8FD00E030462063206B18B9204600F0F3
:101DA00013FE0024204670BD2DE9FF4F81B0804610
:101DB00015469946DDE90E7A28461099FFF7DDFFB2
:101DC0000446002C4ED0681E216B01EB800B2BF0DB
:101DD000070B00953A462046119B0299FFF7A1FF99
:101DE0004A464146584600F021FD2060BAF1000FF6
:101DF00001D0CAF8004000F04DFDC0480068401C0A
:101E0000BE490860BE48006840B9BD480460084645
:101E1000006801280CD1FFF761FF09E0B9480068AC
:101E200030B9B7480068C06AB84201D8B448046005
:101E3000B5480068401CB4490860B449E06A0968C4
:101E4000884202D9B149E06A0860E16A01EB810188
:101E5000A24A02EB8100211DFFF705FF012600F0D9
:101E600026FD01E04FF0FF36012E09D1A54800689C
:101E700030B1A3480068C06AB84201D200F000FD4A
:101E8000304605B0BDE8F08F9A490968096809B97C
:101E9000012100E0002121B14FF0FF319C4A116087
:101EA00006E094490968C968C868994A41681160A0
:101EB000704770B5054600F0EDFC15B99048006814
:101EC00000E028460446201DFFF7F3FEA06A18B183
:101ED00004F11800FFF7EDFE211D8448FFF7C3FE53
:101EE0008C480068401C8B49086087480068401C8B
:101EF0008549086000F0DBFC8248006840B18048FA
:101F00000068844202D100F0BBFC01E0FFF7BCFF97
:101F100070BD2DE9F04100277F480068002864D19A
:101F20007E480068401C7D490860084606688EB9F6
:101F30007048D0F80080704800686E4908606E48AC
:101F4000C0F8008076480068401C75490860FFF7BB
:101F50009BFF00BF6E48006886423AD300BF6548C9
:101F60000068006808B9012000E0002020B14FF0AF
:101F7000FF30674908602BE05E480068C068C468AD
:101F80006568AE4202D26248056021E0201DFFF77D
:101F900090FEA06A18B104F11800FFF78AFE5B49B1
:101FA000E06A0968884202D95849E06A0860E16A33
:101FB00001EB8101494A02EB8100211DFFF753FE2D
:101FC0004F49E06A0968C96A8842C8D30127C6E751
:101FD00000BF4B480068C06A00EB80003F4951F8E1
:101FE0002000012806D9012704E04E480068401C63
:101FF0004C4908604C48006800B101273846BDE8EC
:10200000F08170B5002500F045FC43480068401E93
:10201000414908600846006800284AD137480068EE
:10202000002846D023E03048C068C46804F1180096
:10203000FFF73FFE201DFFF73CFE3449E06A0968C8
:10204000884202D93149E06A0860E16A01EB810106
:10205000224A02EB8100211DFFF705FE2849E06AB4
:102060000968C96A884202D301202F4908601E48C6
:10207000006808B9012000E000200028D3D02948DA
:10208000006878B10AE0FFF744FF10B1012026494B
:10209000086024480068401E224908602148006802
:1020A0000028F0D120480068012802D1012500F065
:1020B000E7FB00F0FCFB284670BD10B50446104855
:1020C000006844601548006884422FD20C480168BB
:1020D000091D09480068FFF7D2FD34E06C000020BC
:1020E000D0000020E4000020F80000200C010020B7
:1020F0002001002044000020480000201C00002097
:1021000014000020280000203800002024000020B7
:102110003C0000201800002040000020200000208B
:10212000340000202C00002030000020F948016815
:10213000091DF9480068FFF7A2FDF84800688442CD
:1021400001D2F648046010BDF5480068401CF4490F
:10215000086070472DE9F047044688464FF00009B3
:10216000FFF7F2FFEF480768206800EB08052068DA
:10217000B84207D92068A8420BD9BD4209D94FF00F
:10218000010906E02068A84201D8BD4201D94FF0FC
:1021900001092560B9F1000F07D0DE480068001D75
:1021A000FFF787FD2846FFF788FFFFF72AFF06465F
:1021B0000EB900F065FBBDE8F08770B50446002657
:1021C0007CB1FFF7C1FFD74800680519D148006806
:1021D000001DFFF76EFD2846FFF76FFFFFF711FFA9
:1021E00006460EB900F04CFB70BD70B5044600F019
:1021F00051FB14B9C748006800E020460646F56A5E
:1022000000F055FB284670BD2DE9F04707460D4606
:102210004FF00009052D00D3042500F03BFB17B952
:10222000BC48006800E038460446E66AAE4243D047
:10223000B5420BD9B748006884420DD0B548006854
:10224000C06AA84208D84FF0010905E0B14800680B
:10225000844201D14FF00109D4F82C80E562A069D5
:1022600010F0004F02D1C5F10500A06108EB880114
:10227000AD4A02EB81016069884201D1012000E092
:10228000002098B1201DFFF714FDA849E06A0968F5
:10229000884202D9A549E06A0860E16A01EB810140
:1022A000A14A02EB8100211DFFF7DDFCB9F1010F0E
:1022B00001D100F0E5FA00BF00F0F9FABDE8F087BF
:1022C0009748006818B10120994908602CE0002067
:1022D0009749086004E095480068401E93490860EB
:1022E0009248006800EB80008F4951F8200008B93F
:1022F000012000E000200028EDD18C49096801EBA5
:102300008101894A02EB810041684968416000F11E
:10231000080142688A4202D14168496841604168C7
:10232000C9687C4A116000BF704770B5054600F06F
:10233000B1FA15B97748006800E028460446201D28
:10234000FFF7B7FCA06A18B104F11800FFF7B1FC61
:10235000211D7848FFF787FC00F0A9FA6D48006856
:10236000844212D17448006810B100F089FA11E07B
:102370007048006871490968884203D100206549A6
:10238000086007E0FFF79CFF04E06B48006808B1B5
:10239000FFF77AFD70BD10B5014600200A46654C76
:1023A0005369A34201D1012300E0002373B1644CBF
:1023B000936AA34201D1012300E0002333B9936A59
:1023C0000BB9012300E0002303B1012010BD70B55B
:1023D00005462C4644B34F480068844224D000F0A0
:1023E00059FA2046FFF7D7FF01281BD1201DFFF720
:1023F00060FC4E49E06A0968884202D94B49E06AAC
:102400000860E16A01EB8101474A02EB8100211D6E
:10241000FFF729FC3F49E06A0968C96A884201D38D
:1024200000F02EFA00F043FA70BD2DE9F0410546A8
:1024300000262C46FDF70CFF07462046FFF7ABFFB2
:10244000012823D136480068D8B93249E06A0968C2
:10245000C96A884200D30126201DFFF72AFC3349B0
:10246000E06A0968884202D93049E06A0860E16A96
:1024700001EB81012C4A02EB8100211DFFF7F3FBE8
:1024800004E004F118012E48FFF7EDFB3846FDF794
:10249000E6FE3046BDE8F08110B50446206B00F042
:1024A00093FA204600F090FA10BD70B523E0FFF7D4
:1024B0004BFE2448006808B9012000E000200546D2
:1024C000FFF79FFDBDB900F0E5F91E48C068C4687C
:1024D000201DFFF7EEFB19480068401E17490860F1
:1024E00019480068401E1849086000F0E0F92046CD
:1024F000FFF7D2FF00BF144800680028D7D170BD95
:1025000000BFFFF7D2FF084800680128F9D900F0A2
:10251000B7F9F6E714000020440000203C0000203A
:1025200040000020200000206C000020240000203B
:102530003000002020010020280000201C00002086
:10254000F80000200C010020180000201FB500201A
:1025500000900190029003468022A4A10390A54818
:10256000FFF722FC0446012C09D1FDF771FE012082
:10257000A14908600020A149086000F06BF91FBD67
:1025800010B5FDF765FE00209B49086000F077F963
:1025900010BD10B500F07EF99848046800F087F986
:1025A000204610BD70B5FDF753FE054693480468FC
:1025B0002846FDF754FE204670BD914800687047DC
:1025C00070B504460E4614B98E48056800E02546ED
:1025D00000F060F96E6400F06AF970BD70B50446F1
:1025E00014B98848056800E0254600F053F96E6C80
:1025F00000F05DF9304670BD2DE9F04105460F460B
:1026000015B98048046800E02C46606C20B138465B
:10261000616C8847064600E000263046BDE8F08140
:1026200070B506460C467748016818313046FFF70A
:1026300026FB74480068001DFFF73BFB601C06D1B9
:1026400070480168091D7048FFF70DFB05E06B48F5
:10265000006805192846FFF730FD70BD2DE9F041EF
:1026600007460D46144645F00040664909688861F2
:102670006448016818313846FFF7F5FA6148006888
:10268000001DFFF716FB601C06D15E480168091D9E
:102690005D48FFF7E8FA05E058480068061930463B
:1026A000FFF70BFDBDE8F08170B50646F068C46821
:1026B00004F11800FFF7FDFA54480068A0B9201D86
:1026C000FFF7F7FA5249E06A0968884202D950498F
:1026D000E06A0860E16A01EB81014E4A02EB810089
:1026E000211DFFF7C0FA04E004F118014A48FFF782
:1026F000BAFA4449E06A0968C96A884204D90125DE
:1027000001204649086000E00025284670BD2DE9FB
:10271000F04105460F4647F000402860EC68284627
:10272000FFF7C7FA201DFFF7C4FA3949E06A0968C4
:10273000884202D93649E06A0860E16A01EB81010A
:10274000344A02EB8100211DFFF78DFA2D49E06A22
:102750000968C96A884204D9012601202F49086006
:1027600000E000263046BDE8F0812D49096801608F
:10277000224909684160704770B504460D4600F073
:1027800089F81E4802682868401C01D1002619E01B
:10279000234920680968884204D06068904201D8C3
:1027A00001260FE06068101A2968884209D228685B
:1027B0006168511A401A28602046FFF7D6FF0026AC
:1027C00000E0012600F073F8304670BD0120134987
:1027D000086070470B49096888690A490968C96A2D
:1027E000C1F10501074A12689161704749444C459F
:1027F0000000000001250008280000202000002023
:102800001C000020140000202001002040000020B7
:10281000240000206C000020F80000203000002080
:1028200034000020FDF714FD00BFFEE7001F4FF04D
:1028300080730360001F0160001F2B4B036014387E
:1028400002602038704729484FF0E0214861072096
:102850000861704710B52648006840F47F0024499D
:1028600008600846006840F07F400860FFF7EBFF13
:10287000002020490860FDF7BBFC002010BD704718
:102880004FF080501A491C390860BFF34F8FBFF3D7
:102890006F8F704710B5FDF7DBFC16480068401CD1
:1028A00014490860BFF34F8FBFF36F8F10BD10B591
:1028B00010480068401E0F4908600846006810B9BB
:1028C0000020FDF7CCFC10BD10B5FDF7C1FCFFF7F3
:1028D00020FB20B14FF0805005491C3908600020D2
:1028E000FDF7BDFC10BD0000252800083F190100C0
:1028F00020ED00E04C000020434A22F00700434A4C
:1029000010600022414B5A6044F2F832404B5A604A
:1029100000221A60014644F2F8324A601A460A6000
:1029200070472DE9F04104464FF00008FFF70CFC1A
:102930003848006820B9FFF7DFFF012035490860FB
:1029400044B1083414F0070F04D004F00700C0F1BC
:1029500008000444002C32D044F2F83084422ED2D5
:102960002A4F3846056801E02F462D686868A04266
:1029700002D228680028F7D1254885421FD0386840
:1029800000F10808286838606868001B102810D912
:102990002E196868001B70606C6071681B4800E04D
:1029A0000068026852688A42FAD3026832600660A0
:1029B00000BF194968680968081A17490860FFF7D5
:1029C00020FB4046BDE8F08170B506463546B6B1FD
:1029D000083D2C46FFF7B8FB61680C4800E0006832
:1029E000026852688A42FAD30268226004600A4987
:1029F00060680968084408490860FFF702FB70BD79
:102A000005480068704770473C01002058000020CE
:102A100060000020540000205000002010B5FEF798
:102A200037F84FF48030FEF753F8FEF790F804467D
:102A3000012C29D11020FDF765FD0220FDF74EFD88
:102A40000020FEF7C6F80020FEF7D5F8A002FEF73A
:102A5000C9F8E003FEF7E9F84FF4E0114FF4403015
:102A6000FEF79AF80120FEF7A3F800BF3920FEF721
:102A700052F80028FAD00220FEF79DF800BFFEF7BA
:102A8000A3F80828FBD101E000BFFEE710BDFFF767
:102A9000C5FF00F004F800F01FF800BFFEE710B516
:102AA0004FF44070FDF794FC10BD704770477047BD
:102AB00000BFFEE700BFFEE700BFFEE770477047BC
:102AC000704770477047704770477047704770474E
:102AD00070477047704770471FB500201A4908605B
:102AE0000121C802FEF73AF94FF6FF70ADF8080071
:102AF0004820ADF804000020ADF80A00ADF806004B
:102B00008DF80C0001A91148FEF764FA19208DF820
:102B1000000007208DF8010000208DF80200012040
:102B20008DF803006846FDF758FC01218802FDF787
:102B3000C6FC012211460548FEF7C3FD01210348EA
:102B4000FEF7A4FD1FBD000068000020002C01401E
:102B5000704770477047754600F028F8AE4605008C
:102B60006946534620F00700854618B020B5FDF7AA
:102B70008BFBBDE820404FF000064FF000074FF000
:102B800000084FF0000B21F00701AC46ACE8C0098B
:102B9000ACE8C009ACE8C009ACE8C0098D46704794
:102BA0000446AFF300802046FDF709FB004870475C
:102BB0003445002001491820ABBEFEE72600020084
:102BC00070470000E42B0008000000206C000000AB
:102BD0006C010008502C00086C0000202C4B0000F9
:102BE0008801000800000000010203040102030440
:102BF00006070809020406080000000000000000A3
:102C000000000000000000000000000000000000C4
:102C100000000000000000000000000000000000B4
:102C2000FFFFFFFF000000000000000000000000A8
:102C3000AAAAAAAAF84300000000000000000000B1
:102C40000000000000000000000000000000000084
:0400000508000131BD
:00000001FF
