:020000040800F2
:10000000904B00206D02000875020008770200087E
:10001000790200087B0200087D0200080000000051
:10002000000000000000000000000000CD010008FA
:1000300081020008000000000D020008A11900085C
:10004000870200088702000887020008870200086C
:10005000870200088702000887020008870200085C
:10006000870200088702000887020008870200084C
:10007000870200088702000887020008870200083C
:10008000870200088702000887020008870200082C
:10009000870200088702000887020008870200081C
:1000A000870200088702000887020008870200080C
:1000B00087020008870200088702000887020008FC
:1000C00087020008870200088702000887020008EC
:1000D00087020008870200088702000887020008DC
:1000E00087020008870200088702000887020008CC
:1000F00087020008870200088702000887020008BC
:1001000087020008870200088702000887020008AB
:10011000870200088702000887020008870200089B
:10012000870200088702000887020008870200088B
:1001300000F002F800F03AF80AA090E8000C8244BF
:100140008344AAF10107DA4501D100F02FF8AFF29C
:10015000090EBAE80F0013F0010F18BFFB1A43F0A5
:1001600001031847801A0000A01A0000103A24BFAB
:1001700078C878C1FAD8520724BF30C830C144BF0C
:1001800004680C607047000000230024002500264E
:10019000103A28BF78C1FBD8520728BF30C148BFEA
:1001A0000B6070471FB51FBD10B510BD01F0E2FC1C
:1001B0001146FFF7F7FF01F0D6FC01F000FD03B494
:1001C000FFF7F2FF03BC01F005FD00001F4B1968AB
:1001D0000868B0E8F00F80F30988BFF36F8F4FF025
:1001E000000080F311884EF00D0E704700000000F3
:1001F00005480068006880F3088862B6BFF34F8F37
:10020000BFF36F8F00DF00BF08ED00E0EFF3098060
:10021000BFF36F8F0D4B1A6820E9F00F106008B51F
:100220004FF0BF0080F3118801F0B6F84FF00000E6
:1002300080F31188BDE8084019680868B0E8F00F3D
:1002400080F30988BFF36F8F704700BF1400002050
:10025000EFF311804FF0BF0181F31188704780F3F5
:1002600011887047EFF30580704700000948804708
:1002700009480047FEE7FEE7FEE7FEE7FEE7FEE788
:10028000FEE7FEE7FEE7FEE704480549054A064BA0
:10029000704700007B0300083101000890450020F2
:1002A000904B002090470020904700200021002024
:1002B000434A126842F48032414B1A6000BF404A00
:1002C000126802F40030491C10B9B1F5A06FF6D1E4
:1002D0003B4A126812F4003F01D0012000E00020E8
:1002E000012843D1374A126842F01002354B1A6098
:1002F0001A46126822F003021A601A46126842F087
:1003000002021A602E4A52682D4B5A601A465268F1
:100310005A601A46526842F480625A601A4652681D
:1003200022F47C125A601A46526842F4E8125A606B
:100330001A46126842F080721A6000BF204A1268A2
:1003400012F0007FFAD01E4A526822F003021C4BC2
:100350005A601A46526842F002025A6000BF184AB8
:10036000526802F00C02082AF9D101E000BFFEE752
:10037000704710B5FFF79AFF10BD10B51048006820
:1003800040F001000E490860084640680E490840E8
:100390000B494860084600680C4908400849086055
:1003A0000846006820F4802008600846406820F471
:1003B000FE0048604FF41F008860FFF7DAFF10BDB1
:1003C00000100240002002400000FFF8FFFFF6FE90
:1003D00001460020FE4A106800F038000843106013
:1003E0007047FB49096821F00801F94A116011467C
:1003F0000968014311607047F549096821F010014F
:10040000F34A116011460968014311607047F148D1
:10041000EF494860F04848607047EE48EC49486052
:10042000ED4848607047EA48006940F08000E849BC
:1004300008617047E648006940F08000E4490861BF
:1004400070470420E249C96811F0010F01D0012072
:100450000EE0DF49C96811F0040F01D0022007E067
:10046000DB49C96811F0100F01D0032000E004201F
:10047000704700B502460423FFF7E3FF034603E09D
:10048000FFF7DFFF0346521E012B01D1002AF7D1EF
:1004900002B90523184600BD30B5044604254FF4C3
:1004A0003020FFF7E6FF0546042D17D1C848006944
:1004B00040F00200C649086108464461006940F006
:1004C000400008614FF43020FFF7D3FF0546C048D5
:1004D000006941F6FD710840BD490861284630BDFC
:1004E00010B504244FF43020FFF7C3FF0446042C5A
:1004F00016D1B748006940F00400B54908610846C4
:10050000006940F0400008614FF43020FFF7B1FF70
:100510000446AF48006941F6FB710840AC490861E8
:10052000204610BD00B502460423FFF78AFF0346AC
:1005300003E0FFF786FF0346521E012B01D1002A7C
:10054000F7D102B90523184600BD10B504244FF4B5
:100550003020FFF7E7FF0446042C16D19C480069C1
:1005600040F004009A4908610846006940F04000E4
:1005700008614FF43020FFF7D5FF04469448006926
:1005800041F6FB71084092490861204610BD0020E9
:100590008F49C96911F0020F01D0012000E000204D
:1005A000704730B5A5250424FFF7F1FF00B1002501
:1005B0004FF43020FFF75DFF0446042C3AD1854804
:1005C00083498860844888600846006940F02000BC
:1005D00008610846006940F0400008614FF430208F
:1005E000FFF747FF0446042C1BD17948006941F608
:1005F000DF710840764908610846006940F0100044
:10060000086176480580E002FFF733FF0446052CB9
:1006100010D06F48006941F6EF7108406C490861DD
:1006200008E0052C06D06A48006941F6EF710840E1
:1006300067490861204630BDF0B504460D460426E2
:100640000027F002FFF715FF0646042E22D160486E
:10065000006940F001005E4908612580F002FFF763
:1006600008FF0646042E0ED1A71C280C3880F00285
:10067000FFF7FFFE06465648006941F6FE71084046
:100680005349086106E05248006941F6FE7108408E
:100690004F4908613046F0BD70B504460D4604264A
:1006A000F002FFF7E6FE0646042E11D14848006925
:1006B00040F00100464908612580F002FFF7D9FEAD
:1006C00006464348006941F6FE710840404908610A
:1006D000304670BD70B505460E460424E002FFF7B3
:1006E000C8FE0446042C17D13A48394988603A4874
:1006F00088600846006940F0100008612E80E00222
:10070000FFF7B7FE0446052C06D03148006941F6D4
:10071000EF7108402E490861204670BD2DE9F04375
:1007200004464FF6FF763746B046B1460425E4430B
:10073000E6B2C4F30727C4F307484FEA1469E80296
:10074000FFF797FE0546042D40D1224820498860D6
:10075000214888600846006940F010000861FF2EBB
:1007600006D01E4808300680E802FFF782FE0546E4
:10077000042D08D1FF2F06D018480A300780E80260
:10078000FFF777FE0546042D0AD1B8F1FF0F07D019
:1007900012480C30A0F80080E802FFF76AFE054618
:1007A000042D0AD1B9F1FF0F07D00C480E30A0F884
:1007B0000090E802FFF75DFE0546052D06D00448CF
:1007C000006941F6EF71084001490861284607E0D9
:1007D0000020024023016745AB89EFCD00F8FF1FE1
:1007E000BDE8F08330B5054604244FF43020FFF710
:1007F00040FE0446042C41D15E485F4988605F4852
:1008000088600846006940F02000086108460069D9
:1008100040F0400008614FF43020FFF72AFE044604
:10082000042C22D15448006941F6DF710840524936
:1008300008610846006940F0100008611DB1002001
:100840004F49088002E0A5204D4908804FF4302030
:10085000FFF70FFE0446052C10D04748006941F60B
:10086000EF7108404449086108E0052C06D0424871
:10087000006941F6DF7108403F490861204630BDFC
:10088000F0B505460E46174604243A483A498860B2
:100890003A488860E002FFF7ECFD0446042C19D1C9
:1008A0003548006940F010003349086147F0F8000E
:1008B000304328433249891C0880E002FFF7D9FD04
:1008C0000446052C06D02C48006941F6EF7108401B
:1008D000294908612046F0BD2748C0698008704753
:1008E0002548006A704700202349096811F0200F4D
:1008F00001D0012000E00020704729B11E4A126992
:1009000002431D4B1A6104E01B4A126982431A4BD1
:100910001A61704701460020012908D1164AD269A0
:1009200012F0010F01D0012008E0002006E0124A79
:10093000D2680A4201D0012000E0002070470E4931
:10094000C860704704200C49C96811F0010F01D03C
:1009500001200EE00849C96811F0040F01D00220FF
:1009600007E00549C96811F0100F01D0032000E02D
:10097000042070472301674500200240AB89EFCD7A
:1009800000F8FF1FDB48006840F00100D94908600B
:1009900008464068D8490840D6494860084600687B
:1009A000D6490840D34908600846006820F48020F2
:1009B00008600846406820F4FE0048604FF41F00BD
:1009C00088607047CB49096821F48031C94A1160B9
:1009D0001146096821F480211160B0F5803F03D0F1
:1009E000B0F5802F0ED106E0C249096841F480318C
:1009F000C04A116007E0BF49096841F4A021BD4A1F
:100A0000116000E000BF00BF704710B50146002232
:100A1000002300204A11012A02D1B64C236806E0C7
:100A2000022A02D1B34C236A01E0B24C636A01F09E
:100A30001F02012494401C4201D0012000E000204C
:100A400010BD70B500240025002600BF3120FFF73F
:100A5000DCFF0646641CB4F5A06F01D0002EF5D073
:100A60003120FFF7D2FF08B1012500E0002528461C
:100A700070BD014600209F4A106820F0F80040EA4F
:100A8000C100106070479E49086070470246002010
:100A9000984B586820F47C1042EA01031843954BA8
:100AA0005860704796490866704701460020914A91
:100AB000506820F003000843506070478D4840683C
:100AC00000F00C007047014600208A4A506820F070
:100AD000F00008435060704701460020854A506886
:100AE00020F4E06008435060704701460020814ACE
:100AF000506820F4605040EAC1005060704729B14E
:100B00007C4A527A02437B4B5A7204E0794A527A09
:100B10008243784B5A7270477A49086070470146A1
:100B20000020744A506820F44040084350607047E9
:100B30000021754A11706F4A82F82010012802D0F6
:100B4000042808D103E001216F4A117004E0052157
:100B50006D4A117000E000BF00BF70476B4908602C
:100B600070476449096A0143624A116270476749E4
:100B700044390860704730B500210022002400236A
:100B80005C4D6D6805F00C0121B1042905D00829E0
:100B900023D105E05E4D056022E05D4D05601FE05C
:100BA000544D6D6805F47012524D6D6805F4803433
:100BB000022505EB92421CB9564D554305600BE0EA
:100BC0004C4D6D6815F4003F03D0524D5543056000
:100BD00002E04F4D5543056002E04D4D056000BFFA
:100BE00000BF444D6D6805F0F00109094A4D6B5C8A
:100BF0000568DD4045603F4D6D6805F4E061090A18
:100C0000454D6B5C4568DD4085603A4D6D6805F487
:100C10006051C90A404D6B5C4568DD40C560354D8B
:100C20006D6805F44041890B3C4D6B5CC568B5FBB4
:100C3000F3F5056130BD29B12E4A526902432D4BAF
:100C40005A6104E02B4A526982432A4B5A61704729
:100C500029B1284A92690243264B9A6104E0254A49
:100C600092698243234B9A61704729B1214AD26924
:100C70000243204BDA6104E01E4AD26982431D4BD5
:100C8000DA61704729B11B4AD2680243194BDA6016
:100C900004E0184AD2688243164BDA60704729B1E3
:100CA000144A12690243134B1A6104E0114A126993
:100CB0008243104B1A6170471449403908607047ED
:100CC0000F49C86470470B49C87170470948406AAA
:100CD00040F0807007494862704701460020054A8D
:100CE00092680A4201D0012000E0002070470149CB
:100CF00088727047001002400000FFF8FFFFF6FE08
:100D000000004242D8004242201002408004424289
:100D100000127A0000093D000000002010000020B1
:100D200000F1080141604FF0FF31816000F10801DE
:100D3000C1600161002101607047002101617047BD
:100D400042684A6093688B6093685960916008615B
:100D500003685B1C0360704710B502460B685C1C9F
:100D600001D1106907E002F1080000E04068446822
:100D700024689C42FAD944684C604C68A160886041
:100D800041600A611468641C146010BD01460A6960
:100D9000D1E901309860D1E9010358605068884278
:100DA00001D188685060002008611068401E106002
:100DB0001068704710B5002407E004EB8401FD4A79
:100DC00002EB8100FFF7ACFF641C052CF5D3FA4859
:100DD000FFF7A6FFF948FFF7A3FFF948FFF7A0FFC9
:100DE000F848FFF79DFFF848FFF79AFFF248F749E8
:100DF0000860F248F649086010BD2DE9F047044646
:100E00000F4616469946DDF82080002507E0795DFB
:100E100004F134004155785D00B902E06D1C102DDD
:100E2000F5D300BF002143200155052E00D3042631
:100E3000E662201DFFF781FF04F11800FFF77DFF38
:100E40002461C6F10500A061646200206064BDE811
:100E5000F08770B505460E46482000F0CEFD0446EA
:100E600064B11EB9A80000F0C8FD00E03046206360
:100E7000206B18B9204600F013FE0024204670BDF8
:100E80002DE9FF4F81B0804615469946DDE90E7A7F
:100E900028461099FFF7DDFF0446002C4ED0681E4F
:100EA000216B01EB800B2BF0070B00953A46204697
:100EB000119B0299FFF7A1FF4A464146584600F0B0
:100EC00021FD2060BAF1000F01D0CAF8004000F007
:100ED0004DFDC0480068401CBE490860BE4800681F
:100EE00040B9BD4804600846006801280CD1FFF7EE
:100EF00061FF09E0B948006830B9B7480068C06AC6
:100F0000B84201D8B4480460B5480068401CB449F0
:100F10000860B449E06A0968884202D9B149E06AC8
:100F20000860E16A01EB8101A24A02EB8100211D08
:100F3000FFF706FF012600F026FD01E04FF0FF3627
:100F4000012E09D1A548006830B1A3480068C06AE5
:100F5000B84201D200F000FD304605B0BDE8F08F88
:100F60009A490968096809B9012100E0002121B105
:100F70004FF0FF319C4A116006E094490968C96846
:100F8000C868994A41681160704770B5054600F01D
:100F9000EDFC15B99048006800E028460446201D85
:100FA000FFF7F4FEA06A18B104F11800FFF7EEFE97
:100FB000211D8448FFF7C4FE8C480068401C8B4903
:100FC000086087480068401C8549086000F0DBFC29
:100FD0008248006840B180480068844202D100F035
:100FE000BBFC01E0FFF7BCFF70BD2DE9F04100271D
:100FF0007F480068002864D17E480068401C7D4915
:101000000860084606688EB97048D0F800807048BD
:1010100000686E4908606E48C0F800807648006835
:10102000401C75490860FFF79BFF00BF6E480068D1
:1010300086423AD300BF65480068006808B90120BD
:1010400000E0002020B14FF0FF30674908602BE03E
:101050005E480068C068C4686568AE4202D26248F3
:10106000056021E0201DFFF791FEA06A18B104F190
:101070001800FFF78BFE5B49E06A0968884202D9D5
:101080005849E06A0860E16A01EB8101494A02EBD4
:101090008100211DFFF754FE4F49E06A0968C96AC3
:1010A0008842C8D30127C6E700BF4B480068C06A22
:1010B00000EB80003F4951F82000012806D90127A4
:1010C00004E04E480068401C4C4908604C480068E9
:1010D00000B101273846BDE8F08170B5002500F069
:1010E00045FC43480068401E4149086008460068C6
:1010F00000284AD137480068002846D023E030480D
:10110000C068C46804F11800FFF740FE201DFFF717
:101110003DFE3449E06A0968884202D93149E06AF3
:101120000860E16A01EB8101224A02EB8100211D86
:10113000FFF706FE2849E06A0968C96A884202D3B7
:1011400001202F4908601E48006808B9012000E00E
:1011500000200028D3D02948006878B10AE0FFF7C2
:1011600044FF10B101202649086024480068401E51
:1011700022490860214800680028F0D12048006812
:10118000012802D1012500F0E7FB00F0FCFB284616
:1011900070BD10B5044610480068446015480068EA
:1011A00084422FD20C480168091D09480068FFF7E6
:1011B000D3FD34E068000020CC000020E0000020D7
:1011C000F4000020080100201C0100204400002041
:1011D000480000201C0000201400002028000020EF
:1011E00038000020240000203C00002018000020CF
:1011F0004000002020000020340000202C000020AF
:1012000030000020F9480168091DF9480068FFF71F
:10121000A3FDF8480068844201D2F648046010BD7E
:10122000F5480068401CF449086070472DE9F04714
:10123000044688464FF00009FFF7F2FFEF480768C1
:10124000206800EB08052068B84207D92068A8424A
:101250000BD9BD4209D94FF0010906E02068A84228
:1012600001D8BD4201D94FF001092560B9F1000F45
:1012700007D0DE480068001DFFF788FD2846FFF70D
:1012800088FFFFF72AFF06460EB900F065FBBDE8B0
:10129000F08770B5044600267CB1FFF7C1FFD74840
:1012A00000680519D1480068001DFFF76FFD28464A
:1012B000FFF76FFFFFF711FF06460EB900F04CFB7A
:1012C00070BD70B5044600F051FB14B9C748006802
:1012D00000E020460646F56A00F055FB284670BD42
:1012E0002DE9F04707460D464FF00009052D00D3C4
:1012F000042500F03BFB17B9BC48006800E0384605
:101300000446E66AAE4243D0B5420BD9B7480068FE
:1013100084420DD0B5480068C06AA84208D84FF092
:10132000010905E0B1480068844201D14FF001098C
:10133000D4F82C80E562A06910F0004F02D1C5F10D
:101340000500A06108EB8801AD4A02EB81016069EC
:10135000884201D1012000E0002098B1201DFFF754
:1013600015FDA849E06A0968884202D9A549E06AE2
:101370000860E16A01EB8101A14A02EB8100211DB5
:10138000FFF7DEFCB9F1010F01D100F0E5FA00BF73
:1013900000F0F9FABDE8F0879748006818B101201D
:1013A000994908602CE000209749086004E09548BE
:1013B0000068401E934908609248006800EB800076
:1013C0008F4951F8200008B9012000E000200028D2
:1013D000EDD18C49096801EB8101894A02EB81005A
:1013E00041684968416000F1080142688A4202D1BF
:1013F0004168496841604168C9687C4A116000BF22
:10140000704770B5054600F0B1FA15B97748006825
:1014100000E028460446201DFFF7B8FCA06A18B17A
:1014200004F11800FFF7B2FC211D7848FFF788FC93
:1014300000F0A9FA6D480068844212D1744800682F
:1014400010B100F089FA11E070480068714909682C
:10145000884203D100206549086007E0FFF79CFF40
:1014600004E06B48006808B1FFF77AFD70BD10B565
:10147000014600200A46654C5369A34201D101236D
:1014800000E0002373B1644C936AA34201D10123AD
:1014900000E0002333B9936A0BB9012300E0002375
:1014A00003B1012010BD70B505462C4644B34F482A
:1014B0000068844224D000F059FA2046FFF7D7FF95
:1014C00001281BD1201DFFF761FC4E49E06A096825
:1014D000884202D94B49E06A0860E16A01EB810168
:1014E000474A02EB8100211DFFF72AFC3F49E06AD1
:1014F0000968C96A884201D300F02EFA00F043FA65
:1015000070BD2DE9F041054600262C46FEF7A0FEF1
:1015100007462046FFF7ABFF012823D13648006875
:10152000D8B93249E06A0968C96A884200D30126FD
:10153000201DFFF72BFC3349E06A0968884202D975
:101540003049E06A0860E16A01EB81012C4A02EB54
:101550008100211DFFF7F4FB04E004F118012E487F
:10156000FFF7EEFB3846FEF77AFE3046BDE8F08125
:1015700010B50446206B00F093FA204600F090FA74
:1015800010BD70B523E0FFF74BFE2448006808B992
:10159000012000E000200546FFF79FFDBDB900F0E7
:1015A000E5F91E48C068C468201DFFF7EFFB194825
:1015B0000068401E1749086019480068401E184915
:1015C000086000F0E0F92046FFF7D2FF00BF1448A2
:1015D00000680028D7D170BD00BFFFF7D2FF0848D0
:1015E00000680128F9D900F0B7F9F6E714000020E7
:1015F000440000203C00002040000020200000208B
:101600006800002024000020300000201C01002081
:10161000280000201C000020F40000200801002009
:10162000180000201FB50020009001900290034692
:101630008022A4A10390A548FFF722FC0446012CB8
:1016400009D1FEF705FE0120A14908600020A1494B
:10165000086000F06BF91FBD10B5FEF7F9FD002022
:101660009B49086000F077F910BD10B500F07EF9D5
:101670009848046800F087F9204610BD70B5FEF761
:10168000E7FD0546934804682846FEF7E8FD204636
:1016900070BD91480068704770B504460E4614B995
:1016A0008E48056800E0254600F060F96E6400F0A1
:1016B0006AF970BD70B5044614B98848056800E041
:1016C000254600F053F96E6C00F05DF9304670BDB0
:1016D0002DE9F04105460F4615B98048046800E041
:1016E0002C46606C20B13846616C8847064600E0A5
:1016F00000263046BDE8F08170B506460C467748B6
:10170000016818313046FFF727FB74480068001D58
:10171000FFF73CFB601C06D170480168091D70484A
:10172000FFF70EFB05E06B48006805192846FFF738
:1017300030FD70BD2DE9F04107460D46144645F0D9
:101740000040664909688861644801681831384674
:10175000FFF7F6FA61480068001DFFF717FB601CF1
:1017600006D15E480168091D5D48FFF7E9FA05E00A
:101770005848006806193046FFF70BFDBDE8F081B8
:1017800070B50646F068C46804F11800FFF7FEFA69
:1017900054480068A0B9201DFFF7F8FA5249E06AE2
:1017A0000968884202D95049E06A0860E16A01EBA1
:1017B00081014E4A02EB8100211DFFF7C1FA04E0CE
:1017C00004F118014A48FFF7BBFA4449E06A096886
:1017D000C96A884204D9012501204649086000E011
:1017E0000025284670BD2DE9F04105460F4647F01B
:1017F00000402860EC682846FFF7C8FA201DFFF774
:10180000C5FA3949E06A0968884202D93649E06A6E
:101810000860E16A01EB8101344A02EB8100211D7D
:10182000FFF78EFA2D49E06A0968C96A884204D92F
:10183000012601202F49086000E000263046BDE85F
:10184000F0812D49096801602249096841607047AB
:1018500070B504460D4600F089F81E4802682868F5
:10186000401C01D1002619E02349206809688842FC
:1018700004D06068904201D801260FE06068101A19
:101880002968884209D228686168511A401A28607C
:101890002046FFF7D6FF002600E0012600F073F88F
:1018A000304670BD01201349086070470B49096834
:1018B00088690A490968C96AC1F10501074A1268BD
:1018C0009161704749444C4500000000D91500085B
:1018D00028000020200000201C0000201400002010
:1018E0001C0100204000002024000020680000208F
:1018F000F40000203000002034000020FEF7A8FC97
:1019000000BFFEE7001F4FF080730360001F0160FF
:10191000001F2B4B036014380260203870472948A1
:101920004FF0E021486107200861704710B5264854
:10193000006840F47F00244908600846006840F0D1
:101940007F400860FFF7EBFF002020490860FEF7AA
:101950004FFC002010BD70474FF080501A491C39D1
:101960000860BFF34F8FBFF36F8F704710B5FEF75E
:101970006FFC16480068401C14490860BFF34F8F85
:10198000BFF36F8F10BD10B510480068401E0F499F
:1019900008600846006810B90020FEF760FC10BD22
:1019A00010B5FEF755FCFFF720FB20B14FF080503B
:1019B00005491C3908600020FEF751FC10BD0000ED
:1019C000FD1800083F19010020ED00E04C00002048
:1019D000434A22F00700434A10600022414B5A60FC
:1019E00044F2F832404B5A6000221A60014644F239
:1019F000F8324A601A460A6070472DE9F041044601
:101A00004FF00008FFF70CFC3848006820B9FFF7DA
:101A1000DFFF01203549086044B1083414F0070F96
:101A200004D004F00700C0F108000444002C32D0B8
:101A300044F2F83084422ED22A4F3846056801E03D
:101A40002F462D686868A04202D228680028F7D186
:101A5000254885421FD0386800F10808286838609A
:101A60006868001B102810D92E196868001B706068
:101A70006C6071681B4800E00068026852688A4226
:101A8000FAD302683260066000BF194968680968C5
:101A9000081A17490860FFF720FB4046BDE8F081AF
:101AA00070B506463546B6B1083D2C46FFF7B8FB83
:101AB00061680C4800E00068026852688A42FAD304
:101AC0000268226004600A4960680968084408499D
:101AD0000860FFF702FB70BD05480068704770475B
:101AE0003801002058000020600000205400002031
:101AF0005000002010B5FEF745FF4FF48030FEF790
:101B000061FFFEF79EFF0446012C29D11020FEF74D
:101B100073FC0220FEF75CFC0020FEF7D4FF0020DF
:101B2000FEF7E3FFA002FEF7D7FFE003FEF7F7FFA3
:101B30004FF4E0114FF44030FEF7A8FF0120FEF70C
:101B4000B1FF00BF3920FEF760FF0028FAD0022065
:101B5000FEF7ABFF00BFFEF7B1FF0828FBD101E0A5
:101B600000BFFEE710BDFFF7C5FF00BFFEE77047EF
:101B700070477047754600F029F8AE460500694683
:101B8000534620F00700854618B020B5FEF77CFBD1
:101B9000BDE820404FF000064FF000074FF000086E
:101BA0004FF0000B21F00701AC46ACE8C009ACE8EF
:101BB000C009ACE8C009ACE8C0098D4670470446CE
:101BC000AFF300802046FEF7FAFA000000487047A5
:101BD0003045002001491820ABBEFEE72600020078
:101BE00070470000041C000800000020680000008E
:101BF0006C0100086C1C000868000020284B0000E5
:101C0000880100080000000001020304010203042F
:101C10000607080902040608000000000000000092
:101C200000000000000000000000000000000000B4
:101C300000000000000000000000000000000000A4
:101C4000FFFFFFFF00000000000000000000000098
:101C5000AAAAAAAAF84300000000000000000000A1
:0C1C600000000000000000000000000078
:0400000508000131BD
:00000001FF
